S0190000446574496E74656C6967656E74654875732E7372656346
S11300009EC00000BBC00000B9C00000B7C0000023
S1130010B5C00000B3C00000B1C00000AFC0000014
S1130020ADC00000ABC00000A9C00000A7C0000024
S1130030A5C00000A3C00000A1C000009FC0000034
S11300409DC000009BC0000099C0000097C0000044
S113005095C0000093C0000091C000008FC0000054
S11300608DC000008BC0000089C0000087C0000064
S113007085C0000083C0000081C000007FC0000074
S11300807DC000007BC0000079C0000077C0000084
S113009075C0000073C0000071C000006FC0000094
S11300A06DC000006BC00000CBC3000067C000003F
S11300B065C0000063C0000061C000005FC00000B4
S11300C05DC000005BC0000059C0000057C00000C4
S11300D055C0000053C0000051C000004FC00000D4
S11300E04DC0000008000000BE922449123EABAA95
S11300F0AA2ABECDCCCC4C3E00000080BEABAAAA3E
S1130100AA3E00000000BF000000803F0000000085
S113011000084178D3BB4387D1133D190E3CC3BDBE
S11301204282AD2B3E68EC8276BED98FE1A93E4C6B
S113013080EFFFBE01C4FF7F3F00000000001124D8
S11301401FBECFEFD1E2DEBFCDBF00E00CBF12E097
S1130150A0E0B2E0E8E4FFE000E00BBF02C00790DB
S11301600D92A438B107D9F722E0A4E8B2E001C0A7
S11301701D92AE38B207E1F710D3E4C641CFE4E0F4
S1130180F1E0808182608083808181608083089532
S1130190E5E0F1E080818260808380818E7F8083CE
S11301A00895E5E0F1E080818160808380818D7F26
S11301B080830895019711F4EBCF0895F2CF089549
S11301C0A7E0B1E08C918F608C93E8E0F1E080814E
S11301D08F6080838C918F708C938081806F8083FB
S11301E00895E8E0F1E080818F608083209102022D
S11301F03091030222303105D9F024F42130310545
S113020041F040C02330310511F12430310571F142
S113021039C0E8E0F1E08081877F80838091020229
S113022090910302019690930302809302022BC0E3
S1130230E8E0F1E080818B7F8083809102029091DD
S11302400302019690930302809302021CC0E8E02B
S1130250F1E080818D7F808380910202909103027E
S1130260019690930302809302020DC0E8E0F1E04E
S113027080818E7F808381E090E09093030280935D
S1130280020201C00895822F932F089580910601E0
S1130290882354F08FE39CE90197F1F700C0000034
S11302A08091060188237CF58091060186FD0AC0B1
S11302B08FE39CE90197F1F700C0000080910601EB
S11302C086FF24C08091060185FD0AC08FE39CE966
S11302D00197F1F700C000008091060185FF19C065
S11302E08091060184FD18C08FE39CE90197F1F722
S11302F000C000008091060182958F7091E08927EB
S1130300817090E0089584E090E0089583E090E0A7
S1130310089582E090E0089580E090E00895EF92DF
S1130320FF920F931F93CF93DF931F921F92CDB72A
S1130330DEB78C017B01809100029091010201974C
S113034071F48FE0DBD184E092E0C9D180910002A6
S1130350909101020196909301028093000201158D
S1130360110509F4AAC0F801EE0FFF1FEE0FFF1FDD
S1130370EE0DFF1DE259FD4F1081123409F448C0FF
S1130380133409F468C0113409F07DC080918A02E5
S113039090918B02892B09F08BC0809188029091F7
S11303A08902049761F580918402813341F580913B
S11303B08502823321F580918602833301F5809191
S11303C087028433E1F481E090E090938B02809380
S11303D08A0203D36FD180E192E081D18CE192E073
S11303E07ED12FEF87EA91E6215080409040E1F7DB
S11303F000C000005FD186E292E071D159C05AD1A9
S11304008FE392E06CD1109289021092880250C05E
S113041080918A0290918B02019789F4D7D24AD1B4
S1130420109289021092880210928B0210928A0212
S113043081E090E0909301028093000239C03AD1A8
S113044081E090E09093010280930002109289026F
S1130450109288022DC080918A0290918B0201979C
S113046039F528D196D24AE050E0BE016F5F7F4F44
S11304702CD589E592E033D1CE01019630D180E6C6
S113048092E02DD115C08091880290918902049741
S11304907CF4812F12D18091880290918902FC0111
S11304A0EC57FD4F10830196909389028093880244
S11304B080918A0290918B027DDE0F900F90DF91E4
S11304C0CF911F910F91FF90EF900895EBE0F1E031
S11304D0808184608083000080818B7F8083089585
S11304E0CF93C82F662331F0EBE0F1E08081816087
S11304F0808305C0EBE0F1E080818E7F8083EBE0B8
S1130500F1E080818D7F8083AAE0B1E08C918860E6
S11305108C938C9180618C938C9180628C938C9160
S113052080648C9380818F7B808380818F7D8083A6
S113053080818F7E80838081877F8083CC231CF49D
S1130540808180648083C6FF05C0EBE0F1E0808198
S113055080628083C5FF05C0EBE0F1E080818061AB
S11305608083C4FF05C0EBE0F1E080818860808374
S1130570ADDFEBE0F1E080818F7B808380818F7D34
S1130580808380818F7E80838081877F8083C3FF87
S113059003C0808180648083C2FF05C0EBE0F1E08A
S11305A0808180628083C1FF05C0EBE0F1E080813F
S11305B080618083C0FF05C0EBE0F1E0808188604A
S11305C0808384DFEBE0F1E0808188608083808138
S11305D08061808380818062808380818064808365
S11305E0CF910895882331F0EBE0F1E080818160C0
S11305F0808305C0EBE0F1E080818E7F8083ABE0F7
S1130600B1E08C9182608C93EAE0F1E08081877F95
S1130610808380818F7E808380818F7D80838081B1
S11306208F7B80838C9184608C930000809109017E
S113063083FF02C080E101C080E09091090194FD34
S113064080629091090195FD80649091090196FD65
S11306508068EBE0F1E090819B7F908300009081C3
S11306609460908300009091090193FD81609091C2
S1130670090194FD82609091090195FD8460909137
S1130680090196FD8860EBE0F1E090819B7F908307
S1130690089580E0A7DF8823E4F300C000C080E071
S11306A0A1CF0895CF93C82FF4DF60E08C2F18DF1B
S11306B0CF91089581E0F6CF0895CF93C82FE9DF55
S11306C0CA3041F4803410F080E001C080E48058E6
S11306D0E9DF03C061E08C2F03DFCF910895CF934E
S11306E0DF93EC012196FC018081882321F0E5DF72
S11306F089918111FCCFDF91CF9108951F93CF93FE
S1130700DF93182FEAE0F1E08081816080838081AB
S1130710826080838081846080838081886080831C
S11307208081806180838081806280838081806415
S113073080838FE99FE00197F1F700C00000CBE0D0
S1130740D1E0888180618883888188608883BEDE67
S113075081EE94E00197F1F700C00000B7DE95E167
S11307609A95F1F70000B2DE85E18A95F1F7000071
S11307708881877F8883AADE95E19A95F1F7000046
S113078088E290DF88E08EDF95DF86E08BDF812FC3
S113079089DFDF91CF911F910895F1DC11DDFED047
S11307A014D01DD088EE93E02ED078941ADDEC019D
S11307B02FEF80E792E0215080409040E1F700C0A5
S11307C0000064DDBE01ABDDF1CF80E480937C00EA
S11307D081E080937E0087EC80937A000895E0E8BE
S11307E0F0E08081886A8083808181608083E1E891
S11307F0F0E080818860808380818360808384B11D
S1130800806E84B908959C01E1EAF0E090819860DB
S11308109083A2E7B0E09C9192609C93A0E8BEE331
S113082045D3BB27A92F982F872FBC01615071098D
S11308307093A9006093A8008081846080830895E8
S11308401F920F920FB60F9211240BB60F92CF92F4
S1130850DF92EF92FF922F933F934F935F936F93A7
S11308607F938F939F93AF93BF93EF93FF93809165
S11308707A0086FD4FC0609178007091790080E025
S113088090E0ABD19B01AC0160E070E080E894E4BF
S113089010D120E030E040E85FE3A6D020E030E46F
S11308A04CE156E46DD22CD26B017C0129E537E48E
S11308B04CEB53E365D2A701960162D223E73FE7ED
S11308C045E759E392D0A70196015AD22BEE3FEFA8
S11308D043E95AE38AD09B01AC0160E070E080E810
S11308E09FE3E7D023E333E948E853E47DD049D1DB
S11308F070938D0260938C02EAE7F0E0808180645B
S113090080832FEF81EE94E0215080409040E1F706
S113091000C0000080918C0290918D024F9770F07E
S11309208FEF90E0909389008093880010928B0061
S113093010928A0090938D0080938C0080918C0299
S113094090918D024E9770F4109289001092880055
S11309508FEF90E090938B0080938A0010928D002B
S113096010928C00FF91EF91BF91AF919F918F9165
S11309707F916F915F914F913F912F91FF90EF90F5
S1130980DF90CF900F900BBE0F900FBE0F901F9073
S1130990189580918C0290918D020895E0E9F0E021
S11309A0808180688083808182608083E1E9F0E0D7
S11309B080818061808380E29EE49093970080939D
S11309C096008081826080836B9A089584EF91E021
S11309D09093990080939800089580ED97E0909308
S11309E099008093980008955058BB27AA270ED0E9
S11309F048C139D130F03ED120F031F49F3F11F499
S1130A001EF42EC10EF4E095E7FB24C1E92F4AD170
S1130A1080F3BA17620773078407950718F071F417
S1130A209EF562C10EF4E0950B2EBA2FA02D0B019A
S1130A30B90190010C01CA01A0011124FF27591B1F
S1130A4099F0593F50F4503E68F11A16F040A22F25
S1130A50232F342F4427585FF3CF46953795279596
S1130A60A795F0405395C9F77EF41F16BA0B620B95
S1130A70730B840BBAF09150A1F0FF0FBB1F661FDC
S1130A80771F881FC2F70EC0BA0F621F731F841F1F
S1130A9048F4879577956795B795F7959E3F08F045
S1130AA0B3CF9395880F08F09927EE0F9795879504
S1130AB008950CD0E6C0DED040F0D5D030F021F45B
S1130AC05F3F19F0C7C0511110C1CAC0EBD098F3F1
S1130AD09923C9F35523B1F3951B550BBB27AA27BB
S1130AE062177307840738F09F5F5F4F220F331F2D
S1130AF0441FAA1FA9F333D00E2E3AF0E0E830D0F9
S1130B0091505040E695001CCAF729D0FE2F27D0FB
S1130B10660F771F881FBB1F261737074807AB07C9
S1130B20B0E809F0BB0B802DBF01FF2793585F4F3E
S1130B302AF09E3F510568F08DC0D7C05F3FECF3AB
S1130B40983EDCF3869577956795B795F7959F5F03
S1130B50C9F7880F911D9695879597F90895E1E057
S1130B60660F771F881FBB1F621773078407BA07B6
S1130B7020F0621B730B840BBA0BEE1F88F7E09511
S1130B80089598D088F09F5790F0B92F9927B751BE
S1130B90A0F0D1F0660F771F881F991F1AF0BA953D
S1130BA0C9F712C0B13081F09FD0B1E008959CC064
S1130BB0672F782F8827B85F39F0B93FCCF3869533
S1130BC077956795B395D9F73EF490958095709590
S1130BD061957F4F8F4F9F4F0895E89409C097FB0D
S1130BE03EF490958095709561957F4F8F4F9F4F00
S1130BF09923A9F0F92F96E9BB279395F695879544
S1130C0077956795B795F111F8CFFAF4BB0F11F406
S1130C1060FF1BC06F5F7F4F8F4F9F4F16C08823AD
S1130C2011F096E911C0772321F09EE8872F762FE3
S1130C3005C0662371F096E8862F70E060E02AF024
S1130C409A95660F771F881FDAF7880F9695879510
S1130C5097F9089597F99F6780E870E060E0089538
S1130C609FEF80EC089500240A94161617061806C0
S1130C700906089500240A9412161306140605069C
S1130C800895092E0394000C11F4882352F0BB0F2D
S1130C9040F4BF2B11F460FF04C06F5F7F4F8F4F90
S1130CA09F4F089557FD9058440F551F59F05F3FCB
S1130CB071F04795880F97FB991F61F09F3F79F07A
S1130CC087950895121613061406551FF2CF4695FC
S1130CD0F1DF08C0161617061806991FF1CF86957E
S1130CE07105610508940895E894BB276627772762
S1130CF0CB0197F908950EF0A6C0B2CF6894AACF9D
S1130D00D9DFC8F39923D1F3C6F3DF93CF931F93AD
S1130D100F93FF92C92FDD2788232AF02197660FAE
S1130D20771F881FDAF720E030E040E85FEB9FE3AD
S1130D30883920F0803E30F021968F7756DEE4EE3D
S1130D40F0E003C052DEE1E1F1E08BD08B01BE01A3
S1130D50EC01FB2E6F5771097595771F880B990B62
S1130D603EDF28E132E741E35FE316D0AF2D98017F
S1130D70AE01FF900F911F91CF91DF9147DE81CF9C
S1130D800BD07FCF70DF28F075DF18F0952309F0C2
S1130D9061CF66CF1124A9CF85DFA0F3959FD1F34E
S1130DA0950F50E0551F629FF001729FBB27F00D15
S1130DB0B11D639FAA27F00DB11DAA1F649F66276A
S1130DC0B00DA11D661F829F2227B00DA11D621FB9
S1130DD0739FB00DA11D621F839FA00D611D221F73
S1130DE0749F3327A00D611D231F849F600D211D57
S1130DF0822F762F6A2F11249F5750408AF0E1F0FA
S1130E0088234AF0EE0FFF1FBB1F661F771F881F42
S1130E1091505040A9F79E3F510570F01BCF65CF0C
S1130E205F3FECF3983EDCF3869577956795B7952D
S1130E30F795E7959F5FC1F7FE2B880F911D969557
S1130E40879597F908959F3F31F0915020F4879545
S1130E5077956795B795880F911D9695879597F91E
S1130E600895DF93CF931F930F93FF92EF92DF9236
S1130E707B018C01689405C0DA2EEF018DDFFE0141
S1130E80E894A5912591359145915591AEF3EF01E3
S1130E90BDDDFE019701A801DA9479F7DF90EF90A8
S1130EA0FF900F911F91CF91DF910895A29FB00100
S1130EB0B39FC001A39F700D811D1124911DB29F8A
S1130EC0700D811D1124911D08954532510518F4AA
S1130ED0423008F004C0FB011082CB010895BB2707
S1130EE04A3031F4992322F4BDE2909581959F4FC5
S1130EF001C0BB27FB015527AA27880F991FAA1FEA
S1130F00A41710F0A41B83955051B9F7A05DAA3320
S1130F1008F0A95DA193009779F7B111B1931192EB
S1130F20CB0100C0DC01FC01672F71917723E1F74D
S1130F30329704C07C916D9370836291AE17BF07A2
S10B0F40C8F30895F894FFCFF3
S1130F4801000100456E74657220436F64653A00C0
S1130F5856656C6B6F6D6D656E210A004C6161732B
S1130F6874206F702100433A53652074656D706571
S1130F7872617475720A423A4C6F676F75740046F1
S1130F886F726B657274206B6F6465210A423A5004
S1130F98726F76206967656E0054656D703A20003B
S1130FA80A423A4C6F676F757420433A557064610E
S1130FB87465003132334134353642373839432A7F
S1070FC8302344008A
S9030000FC
